{
    "contractName": "Stake",
    "abi": [
        {
            "anonymous": false,
            "inputs": [
                {
                    "indexed": true,
                    "internalType": "address",
                    "name": "previousOwner",
                    "type": "address"
                },
                {
                    "indexed": true,
                    "internalType": "address",
                    "name": "newOwner",
                    "type": "address"
                }
            ],
            "name": "OwnershipTransferred",
            "type": "event"
        },
        {
            "inputs": [],
            "name": "owner",
            "outputs": [
                {
                    "internalType": "address",
                    "name": "",
                    "type": "address"
                }
            ],
            "stateMutability": "view",
            "type": "function"
        },
        {
            "inputs": [],
            "name": "renounceOwnership",
            "outputs": [],
            "stateMutability": "nonpayable",
            "type": "function"
        },
        {
            "inputs": [],
            "name": "totalDevice",
            "outputs": [
                {
                    "internalType": "uint256",
                    "name": "",
                    "type": "uint256"
                }
            ],
            "stateMutability": "view",
            "type": "function"
        },
        {
            "inputs": [],
            "name": "totalYeild",
            "outputs": [
                {
                    "internalType": "uint256",
                    "name": "",
                    "type": "uint256"
                }
            ],
            "stateMutability": "view",
            "type": "function"
        },
        {
            "inputs": [
                {
                    "internalType": "address",
                    "name": "newOwner",
                    "type": "address"
                }
            ],
            "name": "transferOwnership",
            "outputs": [],
            "stateMutability": "nonpayable",
            "type": "function"
        },
        {
            "inputs": [],
            "name": "usdc",
            "outputs": [
                {
                    "internalType": "contract ERC20",
                    "name": "",
                    "type": "address"
                }
            ],
            "stateMutability": "view",
            "type": "function"
        }
    ],
    "bytecode": "6080604052600180546001600160a01b03191673a0b86991c6218b36c1d19d4a2e9eb0ce3606eb4817905534801561003657600080fd5b5061004033610045565b610095565b600080546001600160a01b038381166001600160a01b0319831681178455604051919092169283917f8be0079c531659141344cd1fd0a4f28419497f9722a3daafe3b4186f6b6457e09190a35050565b610286806100a46000396000f3fe608060405234801561001057600080fd5b50600436106100615760003560e01c80627310f2146100665780633e413bee14610082578063715018a6146100ad5780638da5cb5b146100b7578063ace0adf9146100c8578063f2fde38b146100d1575b600080fd5b61006f60045481565b6040519081526020015b60405180910390f35b600154610095906001600160a01b031681565b6040516001600160a01b039091168152602001610079565b6100b56100e4565b005b6000546001600160a01b0316610095565b61006f60035481565b6100b56100df366004610220565b6100f8565b6100ec610176565b6100f660006101d0565b565b610100610176565b6001600160a01b03811661016a5760405162461bcd60e51b815260206004820152602660248201527f4f776e61626c653a206e6577206f776e657220697320746865207a65726f206160448201526564647265737360d01b60648201526084015b60405180910390fd5b610173816101d0565b50565b6000546001600160a01b031633146100f65760405162461bcd60e51b815260206004820181905260248201527f4f776e61626c653a2063616c6c6572206973206e6f7420746865206f776e65726044820152606401610161565b600080546001600160a01b038381166001600160a01b0319831681178455604051919092169283917f8be0079c531659141344cd1fd0a4f28419497f9722a3daafe3b4186f6b6457e09190a35050565b60006020828403121561023257600080fd5b81356001600160a01b038116811461024957600080fd5b939250505056fea2646970667358221220edbda040c06b6e9f5aeb3b31456a3897ce3071972be98fb91b0025f827febc6c64736f6c63430008130033",
    "sourcePath": "d:/Workspace/Hardhat/Stake/contracts/Stake.sol",
    "compiler": {
        "name": "solc",
        "version": "0.8.19+commit.7dd6d404"
    },
    "functionHashes": {
        "owner()": "8da5cb5b",
        "renounceOwnership()": "715018a6",
        "totalDevice()": "007310f2",
        "totalYeild()": "ace0adf9",
        "transferOwnership(address)": "f2fde38b",
        "usdc()": "3e413bee"
    },
    "gasEstimates": {
        "creation": {
            "codeDepositCost": "129200",
            "executionCost": "50254",
            "totalCost": "179454"
        },
        "external": {
            "owner()": "2375",
            "renounceOwnership()": "infinite",
            "totalDevice()": "2262",
            "totalYeild()": "2350",
            "transferOwnership(address)": "28386",
            "usdc()": "2337"
        }
    }
}